:020000040800F2
:10000000081500202D0100082516000827160008F5
:100010002B1600082F1600083316000800000000F9
:10002000000000000000000000000000371600087B
:100030003916000800000000430100083B160008C4
:100040004701000847010008470100084701000870
:100050004701000847010008470100084701000860
:100060004701000847010008470100084701000850
:100070004701000847010008470100084701000840
:100080004701000847010008470100084701000830
:100090004701000847010008470100084701000820
:1000A0004701000847010008470100084701000810
:1000B0004701000847010008470100084701000800
:1000C00047010008470100084701000847010008F0
:1000D00047010008470100084701000847010008E0
:1000E00047010008470100084701000847010008D0
:1000F00047010008470100084701000847010008C0
:1001000047010008470100084701000847010008AF
:1001100047010008DFF810D001F00AFB0048004753
:10012000ED140008AFF30080081500200648804752
:1001300006480047FEE7FEE7FEE7FEE7FEE7FEE7CC
:10014000FEE7FEE7FEE7FEE7F902000815010008FA
:100150002DE9F04104460D46BA4E29462046B047E7
:10016000B9480768B9480768BDE8F081F8B50020CC
:1001700000900026B648006820F08000B44908606E
:100180000846006840F0400008606946B148FFF743
:10019000DFFF0098C0B2052819D86946AE48FFF7BE
:1001A000D7FF0098070E009800F47F00040A00981B
:1001B00000F47F40050247EA040028430090A74866
:1001C000006800F07F4600980643A4480660A048F7
:1001D000006840F080009E490860F8BD1FB500200F
:1001E00002900190009000249D48006840F4803007
:1001F0009B49086000BF9A480068C0F340400190E6
:100200000098401C00909DF8040018B90098B0F5C3
:10021000005FF0D192480068C0F3404001909DF823
:10022000040018B98F48904908601FBD88480068CD
:1002300020F00700864908608C480068C4B2122C80
:1002400005DC0846006840F00300086005E08048CF
:10025000006840F003007E4908608148406880499A
:1002600048600846406840F40050486008464068CE
:1002700040F4A0604860FFF779FF794840687C4906
:100280000840774948600846006C20F00100086487
:10029000084640680390039840F480300390039828
:1002A00040F40030039073490398084303906C496D
:1002B00003984860029808640846006840F080701F
:1002C000086000BF6648006800F000700028F9D0A0
:1002D0006348406820F00300614948600846406870
:1002E00040F00200486000BF5D48406800F00C002C
:1002F0000828F9D100BF98E710B55F48006840F4BE
:1003000070005D4908605648006840F0010054499B
:100310000860084640685949084051494860084605
:100320000068574908404E4908600846006820F4B4
:1003300080200860084640684D49084048494860A8
:100340004FF46050C8620846006C40F00100086439
:100350004C4888600846C06940F08050C861084633
:10036000C06920F08050C8613948006840F08000C2
:10037000374908600846006820F010000860FFF761
:100380002DFF4FF000603C498039086010BD10B56A
:10039000002100200022324B5B6803F00C0121B1E8
:1003A000042906D008293CD107E02E4B2E4C2360AF
:1003B0003BE02C4B2C4C236037E0294B5B682D4CE9
:1003C00003EA0400264B5B6803F4803200F000630C
:1003D0001BB9022303EB904004E04FF4F873C3EB26
:1003E0009043581C72B91E4B1B6C03F0010323B1E0
:1003F000254B43431C4C236012E01A4B43431A4CD9
:1004000023600DE0164B5B6803F4003323B11E4BF1
:100410004343154C236003E0124B4343124C2360CB
:1004200003E0104B104C236000BF00BF0C4B5B6817
:10043000C3F30313154CE15C0B4B1B68CB400A4C18
:10044000236010BDA502FF1F18210008182900080D
:100450000020024020F0FF1F30F2FF1F0418004070
:100460000010024000127A0000000020002004E08A
:10047000FFFFC0F700003C0888ED00E00CC07FF8EB
:10048000FFFFF6FE00009F0400093D007217000800
:1004900010B50446FC48844203D1802000F0CBFF15
:1004A00015E0FA48844203D1801500F0C4FF0EE045
:1004B000F748844203D1401500F0BDFF07E0F5483E
:1004C000844203D1001500F0B6FF00E010BD00BF6C
:1004D000FCE730B50146002000229AE0012383406A
:1004E00003EA0102002A7DD00C2810D9E64B1B68D4
:1004F00045000324AC40A343E34C236023461B6820
:1005000045000224AC402343DF4C236007E0DE4B70
:100510001B6845000324AC402343DB4C236000F000
:1005200008035BB1D84B24331B684407E50E0F2446
:10053000AC40A343D44C243423600AE0D24B203394
:100540001B684407E50E0F24AC40A343CE4C203477
:100550002360CD4B1B1D1B6801248440A343CA4C60
:10056000241D23600F2801D00D2813D1C64B0C3356
:100570001B6845000324AC40A343C34C0C342360E8
:1005800023461B6845000124AC402343BE4C0C3479
:1005900023601FE00E2813D1BB4B0C331B684500B2
:1005A0000324AC40A343B84C0C34236023461B689F
:1005B00045000224AC402343B34C0C34236009E0D3
:1005C000B14B0C331B6845000324AC40A343AE4C35
:1005D0000C342360AC4B08331B6801248440234354
:1005E000A94C00E014E008342360A74B2C331B68AF
:1005F00045000324AC40A343A34C2C342360234682
:100600001B6845000124AC4023439F4C2C342360DD
:10061000401C41FA00F3002B7FF460AF30BD30B5D1
:1006200001460020002282E00123834003EA010208
:10063000002A7BD0032801D0042810D1934B1B68DB
:1006400045000324AC40A343904C236023461B6821
:1006500045000224AC4023438C4C236007E08B4BC5
:100660001B6845000324AC402343884C236000F002
:1006700008035BB1854B24331B684407E50E0F2448
:10068000AC40A343814C243423600AE07F4B2033E9
:100690001B684407E50E0F24AC40A3437B4C203479
:1006A00023607A4B1B1D1B6801248440A343774CB5
:1006B000241D2360042813D1744B0C331B684500A0
:1006C0000324AC40A343714C0C34236023461B68C5
:1006D00045000124AC4023436C4C0C34236009E0FA
:1006E0006A4B0C331B6845000324AC40A343674CA2
:1006F0000C342360654B08331B680124844023437A
:10070000624C08342360614B2C331B684500032482
:10071000AC40A3435D4C2C34236023461B6845004A
:100720000124AC402343594C2C342360401C41FA33
:1007300000F3002B7FF478AF30BD30B501460020C8
:10074000002248E00123834003EA0102F2B3504B48
:100750001B6845000324AC4023434D4C23604C4BA5
:1007600024331B684407E50E0F24AC40A343484CD8
:1007700024342360464B1B1D1B6801248440A34383
:10078000434C241D2360424B0C331B68450003245B
:10079000AC40A3433E4C0C342360231F1C68012350
:1007A00083401C433A4B08331C60394B2C331B6885
:1007B00045000324AC40A343354C2C34236023462E
:1007C0001B6845000124AC40234300E002E0304CAC
:1007D0002C342360401C41FA00F3002BB2D130BD11
:1007E00030B501460020002277E00123834003EA70
:1007F0000102002A70D080B9264B1B6845000324F3
:10080000AC40A343234C236023461B6845000024CF
:10081000AC4023431F4C236007E01E4B1B68450080
:100820000324AC4023431B4C236000F008034BB16E
:10083000184B5B6A4407E50E0F24AC40A343154CEC
:10084000636208E0134B1B6A4407E50E0F24AC40BB
:10085000A343104C23620F4B5B6801248440A343E5
:100860000C4C6360C0B92346DB6845000324AC40F0
:10087000A343084CE3602346DB6845000224AC40F8
:100880002343044CE36011E000340240003802408E
:10089000003C0240004002400C2807D3FC4BDB68C0
:1008A00045000324AC40A343F94CE360F84B9C683B
:1008B000012383401C43F64B9C60DB6A4500032404
:1008C000AC40A343F24CE3622346DB6A45000124BB
:1008D000AC402343EE4CE362401C41FA00F3002B92
:1008E00083D130BD70B5014600220020002313E003
:1008F0000124844004EA01036BB18407E50EFF2460
:1009000004FA05F2E34C850854F825409443E14D80
:10091000860845F82640401C41FA00F4002CE7D137
:1009200070BD00B54FF6FF70FFF7D3FD4FF6FF70B7
:10093000FFF775FE4FF6FF70FFF7FFFE4FF6FF70F3
:10094000FFF74EFF00BD30B50346002002F008045B
:1009500064B1586A5407E50E0F24AC40A043540715
:10096000E40E01FA04F4204358620BE0186A5407BD
:10097000E50E0F24AC40A0435407E40E01FA04F442
:100980002043186230BD70B503460020002418686B
:1009900001F0030456000325B540A843550004FAAE
:1009A00005F528431860012905D0112903D0022933
:1009B00001D0122908D1586801259540A843C1F3F8
:1009C000001595402843586070BD30B50B46002196
:1009D000C16855000324AC40A143540003FA04F459
:1009E0002143C16030BD10B50B4600218168012450
:1009F0009440A14303FA02F42143816010BD30B555
:100A00000B460021C16A55000324AC40A1435400A9
:100A100003FA04F42143C16230BDF0B506460C462A
:100A2000002500271FE00121A940206800EA0107F6
:100A3000C7B12A4630466169FFF785FF2A4630462E
:100A40006168FFF7A0FF2A463046A168FFF7BDFFA7
:100A50002A463046E168FFF7C6FF2A46304621693C
:100A6000FFF7CDFF6D1C2068E8400028DBD1F0BD0A
:100A700010B5012000F0E9FC10BD4FF6FF710160D8
:100A80000021C16041600F2141610021816001614D
:100A9000704702461069084008B1012070470020E5
:100AA000FCE70146086980B2704702465069084079
:100AB00008B1012070470020FCE70146486980B278
:100AC000704781617047816270470A4613048361F1
:100AD0007047816270474161704742694A40426194
:100AE0007047002241F48032C261C161C261C269B3
:100AF000C2697047F0B503461546002200200BB9C5
:100B0000654E08E0012B01D1644E04E0022B01D1B7
:100B1000634E00E05E4E344601F0080666B101F017
:100B20000702606A97000F26BE40B043960005FAA0
:100B300006F6304360620BE001F00702206A97007E
:100B40000F26BE40B043960005FA06F630432062F9
:100B5000F0BD10B54F4A831052F823208307DC0EF6
:100B60003F23A3409A434B4B841043F824201A465A
:100B7000831052F823208307DB0E01FA03F31A4394
:100B8000444B841043F8242010BD0A460021414BF9
:100B90001B1F1B68C3F30B010AB1014300E0814333
:100BA0003C4B1B1F1960704702460020092A11D1D7
:100BB000384B1B1F186820F40070112902D140F433
:100BC000007003E020F0F00040EA0110314B1B1FE1
:100BD000186011E0082A0FD12E4B1B1F186820F453
:100BE0008070102902D140F4807002E020F00F00E4
:100BF0000843284B1B1F186070472649091F496985
:100C00008143244A121F516170472249091F4969D3
:100C10000143204A121F516170471E49091F086293
:100C2000704710B51C4B984201D100230AE01B4BC2
:100C3000984201D1012305E0194B984201D10223CA
:100C400000E003231A4602F00203ABB9124B9842AC
:100C500007D1104B1B1F9B690B430E4C241FA36134
:100C600028E00E4B984225D10A4B1B1F9B690B4372
:100C7000084C241FA3611DE0094B984212D1054B7B
:100C80001B1FDB690B43034C241FE36112E00000D0
:100C9000004002400400014000340240003802409D
:100CA000003C0240594B984204D1594BDB690B433D
:100CB000574CE36110BD10B5564B984201D100234B
:100CC0000AE0554B984201D1012305E0534B98426D
:100CD00001D1022300E003231A4602F002038BB97C
:100CE0004C4B984205D14A4B9B698B43484CA361BE
:100CF00019E0494B984216D1454B9B698B43444CB4
:100D0000A36110E0454B984205D1414BDB698B4311
:100D10003F4CE36107E03D4B984204D13C4BDB691B
:100D20008B433B4CE36110BD10B53A4B984201D167
:100D300000230AE0384B984201D1012305E0374BEC
:100D4000984201D1022300E003231A4602F0020375
:100D50008BB9304B984205D12D4B5B6A0B432C4C21
:100D6000636219E02C4B984216D1294B5B6A0B4306
:100D7000274C636210E0294B984205D1244B9B6AB3
:100D80000B43234CA36207E0204B984204D1204B35
:100D90009B6A0B431E4CA36210BD10B51D4B9842BD
:100DA00001D100230AE01C4B984201D1012305E048
:100DB0001A4B984201D1022300E003231A4602F0A5
:100DC00002038BB9134B984205D1114B5B6A8B43DD
:100DD0000F4C636219E0104B984216D10C4B5B6AC2
:100DE0008B430B4C636210E00C4B984205D1084BCF
:100DF0009B6A8B43064CA36207E0044B984204D1E4
:100E0000034B9B6A8B43024CA36210BD004002401F
:100E1000000001400034024000380240003C024023
:100E2000F748006840F00100F5490860084640684E
:100E3000F4490840F249486008460068F249084011
:100E4000EF4908600846006820F4802008600846E2
:100E50004068EE490840EA4948604FF46050C86273
:100E60000846006C40F001000864E948886070475B
:100E7000E349096821F48031E14A116011460968AB
:100E800021F480211160B0F5803F05D11146096839
:100E900041F48031116008E0B0F5802F05D1D849C8
:100EA000096841F4A021D64A11607047014600222A
:100EB00000234A11012A02D0022A06D102E0D048BA
:100EC000036805E0CE48036A02E0CD48436A00BFEC
:100ED00000BF01F01F0201209040184008B101201E
:100EE00070470020FCE7F0B5002200BF002100257C
:100EF0000024C34E7668C74F06EA0701C04E7668E5
:100F000006F4803501F000661EB9022606EB914119
:100F100004E04FF4F876C6EB9146711C65B9B84E03
:100F2000366C06F001061EB1BB4E01FB06F30FE066
:100F3000BA4E01FB06F30BE0B14E766806F40036BC
:100F40001EB1B54E01FB06F302E0B44E01FB06F301
:100F5000AB4E766806F00C0222B1042A05D0082AAE
:100F600008D105E0AD4E066007E0AC4E066004E037
:100F7000036002E0A94E066000BF00BFA04E766885
:100F8000C6F30312A64EB45C0668E64046609C4E6B
:100F90007668C6F30222A24EB45C4668E6408660DC
:100FA000974E7668C6F3C2229D4EB45C4668E64012
:100FB000C660934EF66A06F00F029A4EB45C46681D
:100FC000B6FBF4F646618E4EF66AC6F3041202F0E2
:100FD0000F06954F37F81640B3FBF4F60661F0BDE7
:100FE00030B587B000200690002400256846FFF742
:100FF0007AFF8E490098B1FBF0F04FF40051B1FB3D
:10100000F0F400BF3120FFF751FF05460698401C61
:1010100006900698A04201D0002DF3D03120FFF7B2
:1010200045FF10B1012007B030BD0020FBE70120D3
:101030007F49C864704700207D49C86470470146F5
:1010400000206F4A106820F0F80040EAC1001060EC
:101050007047012076490860704700207449086095
:10106000704730B587B00020069000240025684600
:10107000FFF739FF6D490098B1FBF0F04FF40051D4
:10108000B1FBF0F400BF2120FFF710FF05460698E2
:10109000401C06900698A04201D0002DF3D02120DC
:1010A000FFF704FF10B1012007B030BD0020FBE7BF
:1010B00010B50A460023524C6168236C534C214002
:1010C00023F0010308B1012802D11143034302E0D8
:1010D00040EA020421434A4C6160236410BD0120B0
:1010E0005349086670470020514908667047014619
:1010F0000020434A506820F00300084350607047C6
:101100003F48406800F00C007047014600203C4A10
:10111000506820F0F00008435060704701460020FE
:10112000374A506820F4E060084350607047014639
:101130000020334A506820F4605040EAC1005060FB
:1011400070472F49896801432D4A916070472C49A7
:10115000896881432A4A9160704701460020284AE5
:10116000D06A20F000500843D06270470246002049
:10117000234BD86A20F4806020F478401043084361
:10118000D8627047014600201D4AD06A20F4F870EA
:101190000843D06270471A48C06A20F4807018492A
:1011A000C862704701460020154AD06A20F00F003F
:1011B0000843D062704712488030006840F0010058
:1011C0000F49C1F8800070470D488030006820F05A
:1011D00001000B49C1F8800070470021154A1169D0
:1011E0006FF30801B0F5007F02DB40F2FF1001E071
:1011F000C0F3080040F4806211430E4A1161704749
:10120000001002400CC07FF8FFFFF6FEFFFFC0F7A2
:1012100000009F0400003C0800093D0000127A0015
:101220008217000892170008A21700080020A107E3
:101230000000424200700040A849C9690143A74A22
:10124000D161704710B504460B464FF08050FFF750
:10125000F3FFA348006840F48070A14908609F48EC
:10126000006A20F005009D490862012C02D0042C80
:1012700011D109E09948006A40F0010097490862DD
:101280001846FFF7AAFF07E09448006A40F00500FF
:101290009249086200E000BF00BF10BD01209149E3
:1012A0000860704700208F49086070478B48006ACB
:1012B00000F0100008B1012070470020FCE730B5B5
:1012C00087B000200690002400256846FFF70BFE3B
:1012D00085490098B1FBF0F04FF40051B1FBF0F4F8
:1012E00000BF4120FFF7E2FD05460698401C06902E
:1012F0000698A04201D0002DF3D04120FFF7D6FD83
:1013000010B1012007B030BD0020FBE70120754976
:10131000743108607047002072497431086070476A
:1013200030B587B000200690002400256846FFF7FE
:10133000DAFD6D490098B1FBF0F04FF40051B1FBBC
:10134000F0F400BF6120FFF7B1FD05460698401C90
:1013500006900698A04201D0002DF3D06120FFF73F
:10136000A5FD10B1012007B030BD0020FBE75B49AF
:10137000096A21F44071594A11621146096A014310
:1013800011627047012057493031086070470020D2
:10139000544930310860704700B503464FF0805023
:1013A000FFF74AFF4E48006840F480704C490860DF
:1013B0004A48406B20F00700484948630846406BA4
:1013C0001843486300BD4548406B40F48060434982
:1013D00048630846406B20F48060486370473F488C
:1013E000406B40F040003D49486370473B48406BCC
:1013F00020F0400039494863704738494969014342
:10140000364A51617047354949698143334A5161D0
:101410007047324989690143304A916170472F49C9
:10142000896981432D4A916170472C49C96981437B
:101430002A4AD16170472949896A0143274A916242
:101440001146896A8143916270472449C968014302
:10145000224AD1601146C9688143D16070471F4953
:10146000096901431D4A11611146096981431161EE
:10147000704701201B493431086000200860704724
:1014800001460020154A506820F070400843506023
:10149000704701460020114A506820F0F060084370
:1014A000506070470D48406A40F080700B494862B8
:1014B0000846406A20F0807048627047014607483D
:1014C0008068084008B1012070470020FCE703490C
:1014D00089680143014A9160704700000010024092
:1014E000007000400C0442420020A10740F282211B
:1014F000244800F049F840F28221224800F083F8A5
:1015000040F282211F4800F076F84FF47A7000F024
:10151000E4F840F282211B4800F075F830E0022028
:101520001849183108604FF4167000F0D6F8022000
:1015300014492831086080201249183108604FF49E
:10154000167000F0CAF880200E492831086080002B
:101550000C49183108604FF4167000F0BEF84FF4D3
:101560000070084928310860802006491831086059
:101570004FF4167000F0B1F880200249283108605D
:10158000CDE700000034024030B587B004460D4678
:101590002148844203D18020FFF72FFF11E01F482C
:1015A000844203D18015FFF728FF0AE01C488442DB
:1015B00003D14015FFF721FF03E04FF48060FFF7F0
:1015C0001CFF4FF6FF7085420BDA01A8FFF755FAB2
:1015D0000195012002900220059001A92046FFF705
:1015E0001CFA07B030BD70B504460D4629462046AA
:1015F000FFF773FA70BD70B504460D4629462046C4
:10160000FFF75FFA70BD70B504460D4629462046C7
:10161000FFF759FA70BD0000003402400038024064
:10162000003C0240704700BFFEE700BFFEE700BF7E
:10163000FEE700BFFEE770477047704730B50146D0
:10164000B1F1807F01D3012030BD21F07F40401EE9
:101650004FF0E022506150170F22002804DB1307DF
:101660001C0E304B1C5406E013071D0E2E4B00F0D1
:101670000F04241F1D5500BF00204FF0E022906191
:10168000052010611046006920F002001061002062
:10169000DAE731B586B06846FFF725FC23490098A4
:1016A000B0FBF1F52846FFF7C9FF002408E000BFB2
:1016B0004FF0E020006900F480300028F8D0641C6E
:1016C00006988442F3D34FF0E020006920F0010037
:1016D0004FF0E021086107B030BD31B586B06846F3
:1016E000FFF701FC4FF47A710098B0FBF1F5284642
:1016F000FFF7A4FF002408E000BF4FF0E0200069DE
:1017000000F480300028F8D0641C06988442F3D39B
:101710004FF0E020006920F001004FF0E021086167
:1017200007B030BD00E400E018ED00E040420F00DB
:10173000064C074D06E0E06840F0010394E807001E
:1017400098471034AC42F6D3FEF7E8FCC417000803
:10175000E417000802E008C8121F08C1002AFAD1E5
:1017600070477047002001E001C1121F002AFBD121
:10177000704700000000000000000102030406079B
:101780000809000000000102030401020304060727
:10179000080901020406080A0C102020202020203D
:1017A0002020010002000400060008000A000C00CE
:1017B0001000200040008000000100010001000135
:1017C00000010000202900080000002004000000A3
:1017D0005417000824290008040000200415000004
:1017E0006417000800000000000000000000000076
:1017F00000000000000000000000000000000000E9
:1018000000000000000000000000000000000000D8
:1018100000000000000000000000000000000000C8
:1018200000000000000000000000000000000000B8
:042920000020A107EB
:0400000508000115D9
:00000001FF
